:060000000A128A11122809
:10000800FE00030E83120313DD000408DE000A0855
:10001800DF007F08E0000A128A112E280A128A11CE
:1000280015288313B130FD000430FE005230FF0064
:10003800A93084000A128A11E0230A128A1120309A
:1000480084004B300A128A115A24E10183010A12F2
:100058008A11F02A0B1D5F28063081000130AC0799
:100068000318AD0A0030AD07F5302C06031D4A28E9
:100078002D03031D4A28AC01AD010A128A111C2365
:100088000A128A117408A9007308A8000130AA0787
:100098000318AB0A0030AB07E9302A06033003190E
:1000A8002B06031D5E28AA01AB010A128A119E24A1
:1000B8000A128A110B110C1C69288E018F010A1271
:1000C8008A1191240A128A110C100C1D7D280A121B
:1000D8008A1189230A128A11003A03197C280A1204
:1000E8008A11A8240A128A117108A7007008A600AC
:1000F8000C118C1EA4280830F1000030F2003930B1
:100108000A128A111C220A128A1171087204031930
:10011800A42839300A128A11C2220A128A11031C31
:10012800A4282908CC002808CB002708CE002608D8
:10013800CD003330CF000A128A1193220A128A1195
:100148006008FF005F088A005E0884005D0E830077
:10015800FE0E7E0E09003208CD003308CE00CF0116
:10016800D0012E08D1002F08D200D301D4011030BD
:100178000310D10DD20DD30DD40DFF3E031DBC28A5
:100188003008D5003108D600D701D8015508D10765
:1001980056080318560FD128D228D2075708031833
:1001A800570FD728D828D30758080318580AD40750
:1001B8004D08D1024E08031C4E0FE328E428D20252
:1001C8004F08031C4F0FE928EA28D3025008031CE4
:1001D800500FEF28F028D4025408DC005308DB0045
:1001E8005208DA005108D9005C08F3005B08F200F5
:1001F8005A08F1005908F0000030F700F430F60012
:100208002430F5000030F4000A128A1123210A1262
:100218008A117008CD007108CE007208CF007308EB
:10022800D00002300310D00CCF0CCE0CCD0CFF3E0A
:10023800031D16294E08CC004D08CB0008000030DD
:10024800FC000030FB000030FA000030F9007308B1
:1002580072047104700403197829FD01FD0AF31B67
:1002680043290130F8000310F00DF10DF20DF30DE4
:10027800F80B37290130FF007F08FD0733290130CB
:10028800F8000310F90DFA0DFB0DFC0DF80B4529CC
:1002980073087702031D5A2972087602031D5A292A
:1002A80071087502031D5A2970087402031C6B2912
:1002B8007008F4027108031C710FF5027208031C20
:1002C800720FF6027308031C730FF70279140130DA
:1002D8000310F30CF20CF10CF00CFF3E031D6C291B
:1002E8000130FD02031D43297C08F3007B08F2005E
:1002F8007A08F1007908F0000800A7298115011192
:10030800811001100800011181100110080001116D
:100318008110011408000111811401100800011155
:10032800811401140800011581100110080001153D
:10033800811001140800011581140110080001152D
:100348008114011408002108003A0319AF29013A61
:100358000319C929CE292008013A03198229033A29
:1003680003198729063A03198B290C3A03198F298F
:10037800183A03199329303A03199729603A03194F
:100388009B29C03A03199F29CE292008003A03194E
:10039800A329CE290800F500FF30FA00FF30FB0042
:1003A800F601F7017008F200F30173087702031DE4
:1003B800DF29720876020318172A76087507F200F3
:1003C800720884000008F300F4017308FA06740840
:1003D800FB060830F8000030F9007A1CFF290130CC
:1003E8000310FB0CFA0CFF3E031DF4290130FA063A
:1003F800A030FB06062A01300310FB0CFA0CFF3E66
:10040800031D002A0130F8020030031CF903F90229
:1004180078087904031DF1290130F6070318F70A53
:100428000030F707D6297B08F1007A08F0000800A9
:10043800F500981C212A181218167108FF3EF300BF
:1004480072080318013EFF3EF40021087406031DDC
:100458002F2A20087306031D4E2A20087507F3006B
:10046800730884000A128A117A24831380000130E9
:10047800A0070318A10A0030A10720087507F30098
:10048800730884008001A001A1010130F10000304F
:10049800F200080020087507F300730884000A12A8
:1004A8008A117A24831380000130A0070318A10A57
:1004B8000030A107F101F2010800D100510A8400BF
:1004C8003330000603196B2ACF01CF0A6C2ACF01FB
:1004D8000630F00051080A128A11CF210A128A1137
:1004E8007108CE007008CD004D08CB004E08CC0036
:1004F8005108063E840000084B06031D8A2A51084D
:10050800073E840000084C0603198D2AD001D00A42
:100518008E2AD0015008FD004F08FC0008004B0847
:10052800D0004C08D1004D08D2004E08D30033301B
:100538004F06031D08003130C2004F08C3005008A1
:10054800C4005108C5005208C6005308C700063049
:10055800F00042300A128A11CF210A128A1171085A
:10056800D5007008D4005408C8005508C900CA014D
:1005780042300A128A11A92361140800D4005408D1
:10058800840031300006031DCB2ACD2A86140310BF
:100598000800540A8400801BCA2A54080A128A11C7
:1005A80061220A128A117D08D3007C08D200520306
:1005B800031D5303031DEE2A5308CC005208CB0039
:1005C800540A84000008CD000A128A1145230A1231
:1005D8008A11CB2A031408000A128A1162240A120B
:1005E8008A1106308312810010308316A200003071
:1005F800A3000A128A11FE230A128A110A128A110A
:100608006A240A128A110A128A1169230A128A11A3
:10061800033083160313A8000830A7007630A6001D
:10062800A60B142BA70B142BA80B142B00001B2BA9
:100638001530F10080300A128A112D240A128A110D
:10064800081402300A128A1147240A128A110A125F
:100658008A118A240A128A11F7000A128A118A2436
:10066800F80008107708F500F6017508F600F5019E
:1006780078087507F3000030031801307607F40096
:100688000800611808003130C2004D088038C300E6
:10069800C4014B08C5004C08C600C7010630F0006D
:1006A80042300A128A11CF210A128A117108FD00FC
:1006B8007008FC007C08C8007D08C900CA014230E7
:1006C8000A128A11A923611408000A128A111E2429
:1006D8000A128A1108108312081005308316A10027
:1006E80080300A128A11ED230A128A110430831607
:1006F8000313A5000C30A4003330A300A30B822BF6
:10070800A40B822BA50B822B08003808031D962BFF
:100718001608B3001508B200AE01AF01B801B80A57
:10072800003008001608B1001508B0000A128A1136
:10073800AF200A128A114C08B5004B08B400B80162
:100748000A128A11A32401300800F400F201F3010F
:1007580072087407F1007108840000080319080082
:1007680072087407F1007108840000080A128A11DF
:1007780082240A128A110130F2070318F30A0030A2
:10078800F307AC2B8316071787178312981783165E
:100798001812181383121813831698168312181632
:1007A80083161815103099008C160B178B17080034
:1007B8007E088A007F088200DC230A128A118000E2
:1007C800840A04087D0603190034FF0A0319FE0A87
:1007D800E02BA20083120814831622080A128A1139
:1007E8003B240A128A11831621080A128A113B2413
:1007F80008100800831281018316811281112308D1
:10080800A1002208A0000A128A1181210B118B165F
:100818008B1708000A128A1172240A128A11831689
:100828000715831297111715971017140A128A11B2
:10083800982408008801831294111411941014103C
:10084800941614128316141394138712071687111B
:100858000800F200081472080A128A1147240A12C2
:100868008A1171080A128A11472408100800A0008A
:100878002008831293008316141C3F2C8312941FA4
:10088800080094130800F000700893008316141CE5
:100898004A2C8312941F0800941308000134023470
:1008A8000434083410342034403480346400800127
:1008B800840A04060319003404065B2C8316861088
:1008C800831286100A128A11C62308000A128A1196
:1008D8000E2483120C1083160C14080083128E0148
:1008E8008F0190109012101210140800981C7E2C82
:1008F800181218161A08F00070080800F00083167D
:10090800981C832C700883129900080093018316A1
:10091800141C8B2C8312130808000130AE0703182F
:10092800AF0A0030AF0708000C1183160C150B171F
:100938008B1708000530FF007F0897040800F03087
:10094800FF007F08970508003508F1003408F0001B
:02095800080095
:08400000FF3FFF3FFF3FFF3FC0
:02400E00FA3F77
:00000001FF
